{
  "_format": "hh-sol-artifact-1",
  "contractName": "DEX",
  "sourceName": "contracts/DEX.sol",
  "abi": [
    {
      "inputs": [
        {
          "internalType": "contract IERC20",
          "name": "_token",
          "type": "address"
        },
        {
          "internalType": "uint256",
          "name": "_price",
          "type": "uint256"
        }
      ],
      "stateMutability": "nonpayable",
      "type": "constructor"
    },
    {
      "inputs": [],
      "name": "associatedToken",
      "outputs": [
        {
          "internalType": "contract IERC20",
          "name": "",
          "type": "address"
        }
      ],
      "stateMutability": "view",
      "type": "function"
    },
    {
      "inputs": [
        {
          "internalType": "uint256",
          "name": "numTokens",
          "type": "uint256"
        }
      ],
      "name": "buy",
      "outputs": [],
      "stateMutability": "payable",
      "type": "function"
    },
    {
      "inputs": [],
      "name": "currentAddress",
      "outputs": [
        {
          "internalType": "address",
          "name": "",
          "type": "address"
        }
      ],
      "stateMutability": "view",
      "type": "function"
    },
    {
      "inputs": [],
      "name": "currentPrice",
      "outputs": [
        {
          "internalType": "uint256",
          "name": "",
          "type": "uint256"
        }
      ],
      "stateMutability": "view",
      "type": "function"
    },
    {
      "inputs": [
        {
          "internalType": "uint256",
          "name": "numTokens",
          "type": "uint256"
        }
      ],
      "name": "getPrice",
      "outputs": [
        {
          "internalType": "uint256",
          "name": "",
          "type": "uint256"
        }
      ],
      "stateMutability": "view",
      "type": "function"
    },
    {
      "inputs": [],
      "name": "getTokenBalance",
      "outputs": [
        {
          "internalType": "uint256",
          "name": "",
          "type": "uint256"
        }
      ],
      "stateMutability": "view",
      "type": "function"
    },
    {
      "inputs": [],
      "name": "sell",
      "outputs": [],
      "stateMutability": "nonpayable",
      "type": "function"
    },
    {
      "inputs": [],
      "name": "withdrawFunds",
      "outputs": [],
      "stateMutability": "nonpayable",
      "type": "function"
    },
    {
      "inputs": [],
      "name": "withdrawTokens",
      "outputs": [],
      "stateMutability": "nonpayable",
      "type": "function"
    }
  ],
  "bytecode": "0x608060405234801561001057600080fd5b506040516110ca3803806110ca8339818101604052810190610032919061016c565b816000806101000a81548173ffffffffffffffffffffffffffffffffffffffff021916908373ffffffffffffffffffffffffffffffffffffffff16021790555033600260006101000a81548173ffffffffffffffffffffffffffffffffffffffff021916908373ffffffffffffffffffffffffffffffffffffffff1602179055508060018190555050506101ac565b600080fd5b600073ffffffffffffffffffffffffffffffffffffffff82169050919050565b60006100f1826100c6565b9050919050565b6000610103826100e6565b9050919050565b610113816100f8565b811461011e57600080fd5b50565b6000815190506101308161010a565b92915050565b6000819050919050565b61014981610136565b811461015457600080fd5b50565b60008151905061016681610140565b92915050565b60008060408385031215610183576101826100c1565b5b600061019185828601610121565b92505060206101a285828601610157565b9150509250929050565b610f0f806101bb6000396000f3fe6080604052600436106100865760003560e01c80638d8f2adb116100595780638d8f2adb1461010f5780639d1b464a14610126578063b3fc0d7b14610151578063d96a094a1461017c578063e75722301461019857610086565b806324600fc31461008b57806345710074146100a257806381bf4718146100b957806382b2e257146100e4575b600080fd5b34801561009757600080fd5b506100a06101d5565b005b3480156100ae57600080fd5b506100b76102de565b005b3480156100c557600080fd5b506100ce61053b565b6040516100db9190610978565b60405180910390f35b3480156100f057600080fd5b506100f9610543565b60405161010691906109ac565b60405180910390f35b34801561011b57600080fd5b506101246105e5565b005b34801561013257600080fd5b5061013b6107b6565b60405161014891906109ac565b60405180910390f35b34801561015d57600080fd5b506101666107c0565b6040516101739190610a26565b60405180910390f35b61019660048036038101906101919190610a72565b6107e4565b005b3480156101a457600080fd5b506101bf60048036038101906101ba9190610a72565b610920565b6040516101cc91906109ac565b60405180910390f35b600260009054906101000a900473ffffffffffffffffffffffffffffffffffffffff1673ffffffffffffffffffffffffffffffffffffffff163373ffffffffffffffffffffffffffffffffffffffff1614610265576040517f08c379a000000000000000000000000000000000000000000000000000000000815260040161025c90610afc565b60405180910390fd5b60003373ffffffffffffffffffffffffffffffffffffffff164760405161028b90610b4d565b60006040518083038185875af1925050503d80600081146102c8576040519150601f19603f3d011682016040523d82523d6000602084013e6102cd565b606091505b50509050806102db57600080fd5b50565b600260009054906101000a900473ffffffffffffffffffffffffffffffffffffffff1673ffffffffffffffffffffffffffffffffffffffff163373ffffffffffffffffffffffffffffffffffffffff161461036e576040517f08c379a000000000000000000000000000000000000000000000000000000000815260040161036590610afc565b60405180910390fd5b60008060009054906101000a900473ffffffffffffffffffffffffffffffffffffffff1673ffffffffffffffffffffffffffffffffffffffff1663dd62ed3e33306040518363ffffffff1660e01b81526004016103cc929190610b62565b602060405180830381865afa1580156103e9573d6000803e3d6000fd5b505050506040513d601f19601f8201168201806040525081019061040d9190610ba0565b905060008111610452576040517f08c379a000000000000000000000000000000000000000000000000000000000815260040161044990610c3f565b60405180910390fd5b60008060009054906101000a900473ffffffffffffffffffffffffffffffffffffffff1673ffffffffffffffffffffffffffffffffffffffff166323b872dd3330856040518463ffffffff1660e01b81526004016104b293929190610c5f565b6020604051808303816000875af11580156104d1573d6000803e3d6000fd5b505050506040513d601f19601f820116820180604052508101906104f59190610cce565b905080610537576040517f08c379a000000000000000000000000000000000000000000000000000000000815260040161052e90610d47565b60405180910390fd5b5050565b600030905090565b60008060009054906101000a900473ffffffffffffffffffffffffffffffffffffffff1673ffffffffffffffffffffffffffffffffffffffff166370a08231306040518263ffffffff1660e01b815260040161059f9190610978565b602060405180830381865afa1580156105bc573d6000803e3d6000fd5b505050506040513d601f19601f820116820180604052508101906105e09190610ba0565b905090565b600260009054906101000a900473ffffffffffffffffffffffffffffffffffffffff1673ffffffffffffffffffffffffffffffffffffffff163373ffffffffffffffffffffffffffffffffffffffff1614610675576040517f08c379a000000000000000000000000000000000000000000000000000000000815260040161066c90610afc565b60405180910390fd5b60008060009054906101000a900473ffffffffffffffffffffffffffffffffffffffff1673ffffffffffffffffffffffffffffffffffffffff166370a08231306040518263ffffffff1660e01b81526004016106d19190610978565b602060405180830381865afa1580156106ee573d6000803e3d6000fd5b505050506040513d601f19601f820116820180604052508101906107129190610ba0565b905060008054906101000a900473ffffffffffffffffffffffffffffffffffffffff1673ffffffffffffffffffffffffffffffffffffffff1663a9059cbb33836040518363ffffffff1660e01b815260040161076f929190610d67565b6020604051808303816000875af115801561078e573d6000803e3d6000fd5b505050506040513d601f19601f820116820180604052508101906107b29190610cce565b5050565b6000600154905090565b60008054906101000a900473ffffffffffffffffffffffffffffffffffffffff1681565b6107ec610543565b81111561082e576040517f08c379a000000000000000000000000000000000000000000000000000000000815260040161082590610ddc565b60405180910390fd5b600061083982610920565b905080341461087d576040517f08c379a000000000000000000000000000000000000000000000000000000000815260040161087490610e48565b60405180910390fd5b60008054906101000a900473ffffffffffffffffffffffffffffffffffffffff1673ffffffffffffffffffffffffffffffffffffffff1663a9059cbb33846040518363ffffffff1660e01b81526004016108d8929190610d67565b6020604051808303816000875af11580156108f7573d6000803e3d6000fd5b505050506040513d601f19601f8201168201806040525081019061091b9190610cce565b505050565b6000600154826109309190610e97565b9050919050565b600073ffffffffffffffffffffffffffffffffffffffff82169050919050565b600061096282610937565b9050919050565b61097281610957565b82525050565b600060208201905061098d6000830184610969565b92915050565b6000819050919050565b6109a681610993565b82525050565b60006020820190506109c1600083018461099d565b92915050565b6000819050919050565b60006109ec6109e76109e284610937565b6109c7565b610937565b9050919050565b60006109fe826109d1565b9050919050565b6000610a10826109f3565b9050919050565b610a2081610a05565b82525050565b6000602082019050610a3b6000830184610a17565b92915050565b600080fd5b610a4f81610993565b8114610a5a57600080fd5b50565b600081359050610a6c81610a46565b92915050565b600060208284031215610a8857610a87610a41565b5b6000610a9684828501610a5d565b91505092915050565b600082825260208201905092915050565b7f596f7520617265206e6f7420746865206f776e65720000000000000000000000600082015250565b6000610ae6601583610a9f565b9150610af182610ab0565b602082019050919050565b60006020820190508181036000830152610b1581610ad9565b9050919050565b600081905092915050565b50565b6000610b37600083610b1c565b9150610b4282610b27565b600082019050919050565b6000610b5882610b2a565b9150819050919050565b6000604082019050610b776000830185610969565b610b846020830184610969565b9392505050565b600081519050610b9a81610a46565b92915050565b600060208284031215610bb657610bb5610a41565b5b6000610bc484828501610b8b565b91505092915050565b7f596f75206d75737420616c6c6f77207468697320636f6e74726163742061636360008201527f65737320746f206c65617374206f6e6520746f6b656e00000000000000000000602082015250565b6000610c29603683610a9f565b9150610c3482610bcd565b604082019050919050565b60006020820190508181036000830152610c5881610c1c565b9050919050565b6000606082019050610c746000830186610969565b610c816020830185610969565b610c8e604083018461099d565b949350505050565b60008115159050919050565b610cab81610c96565b8114610cb657600080fd5b50565b600081519050610cc881610ca2565b92915050565b600060208284031215610ce457610ce3610a41565b5b6000610cf284828501610cb9565b91505092915050565b7f4661696c656420746f2073656e64000000000000000000000000000000000000600082015250565b6000610d31600e83610a9f565b9150610d3c82610cfb565b602082019050919050565b60006020820190508181036000830152610d6081610d24565b9050919050565b6000604082019050610d7c6000830185610969565b610d89602083018461099d565b9392505050565b7f6e6f7420656e6f75676820546f6b656e73000000000000000000000000000000600082015250565b6000610dc6601183610a9f565b9150610dd182610d90565b602082019050919050565b60006020820190508181036000830152610df581610db9565b9050919050565b7f496e76616c69642076616c75652073656e740000000000000000000000000000600082015250565b6000610e32601283610a9f565b9150610e3d82610dfc565b602082019050919050565b60006020820190508181036000830152610e6181610e25565b9050919050565b7f4e487b7100000000000000000000000000000000000000000000000000000000600052601160045260246000fd5b6000610ea282610993565b9150610ead83610993565b9250828202610ebb81610993565b91508282048414831517610ed257610ed1610e68565b5b509291505056fea2646970667358221220fc40f77a3dd14ed9417d6a4284a2234ad9dc13598af9ee59c584b7aff84fb30c64736f6c634300081b0033",
  "linkReferences": {},
  "deployedLinkReferences": {}
}